{
  "_format": "hh-sol-artifact-1",
  "contractName": "TimelockController",
  "sourceName": "@openzeppelin/contracts/governance/TimelockController.sol",
  "abi": [
    {
      "inputs": [
        {
          "internalType": "uint256",
          "name": "minDelay",
          "type": "uint256"
        },
        {
          "internalType": "address[]",
          "name": "proposers",
          "type": "address[]"
        },
        {
          "internalType": "address[]",
          "name": "executors",
          "type": "address[]"
        },
        {
          "internalType": "address",
          "name": "admin",
          "type": "address"
        }
      ],
      "stateMutability": "nonpayable",
      "type": "constructor"
    },
    {
      "inputs": [],
      "name": "AccessControlBadConfirmation",
      "type": "error"
    },
    {
      "inputs": [
        {
          "internalType": "address",
          "name": "account",
          "type": "address"
        },
        {
          "internalType": "bytes32",
          "name": "neededRole",
          "type": "bytes32"
        }
      ],
      "name": "AccessControlUnauthorizedAccount",
      "type": "error"
    },
    {
      "inputs": [],
      "name": "FailedCall",
      "type": "error"
    },
    {
      "inputs": [
        {
          "internalType": "uint256",
          "name": "delay",
          "type": "uint256"
        },
        {
          "internalType": "uint256",
          "name": "minDelay",
          "type": "uint256"
        }
      ],
      "name": "TimelockInsufficientDelay",
      "type": "error"
    },
    {
      "inputs": [
        {
          "internalType": "uint256",
          "name": "targets",
          "type": "uint256"
        },
        {
          "internalType": "uint256",
          "name": "payloads",
          "type": "uint256"
        },
        {
          "internalType": "uint256",
          "name": "values",
          "type": "uint256"
        }
      ],
      "name": "TimelockInvalidOperationLength",
      "type": "error"
    },
    {
      "inputs": [
        {
          "internalType": "address",
          "name": "caller",
          "type": "address"
        }
      ],
      "name": "TimelockUnauthorizedCaller",
      "type": "error"
    },
    {
      "inputs": [
        {
          "internalType": "bytes32",
          "name": "predecessorId",
          "type": "bytes32"
        }
      ],
      "name": "TimelockUnexecutedPredecessor",
      "type": "error"
    },
    {
      "inputs": [
        {
          "internalType": "bytes32",
          "name": "operationId",
          "type": "bytes32"
        },
        {
          "internalType": "bytes32",
          "name": "expectedStates",
          "type": "bytes32"
        }
      ],
      "name": "TimelockUnexpectedOperationState",
      "type": "error"
    },
    {
      "anonymous": false,
      "inputs": [
        {
          "indexed": true,
          "internalType": "bytes32",
          "name": "id",
          "type": "bytes32"
        },
        {
          "indexed": true,
          "internalType": "uint256",
          "name": "index",
          "type": "uint256"
        },
        {
          "indexed": false,
          "internalType": "address",
          "name": "target",
          "type": "address"
        },
        {
          "indexed": false,
          "internalType": "uint256",
          "name": "value",
          "type": "uint256"
        },
        {
          "indexed": false,
          "internalType": "bytes",
          "name": "data",
          "type": "bytes"
        }
      ],
      "name": "CallExecuted",
      "type": "event"
    },
    {
      "anonymous": false,
      "inputs": [
        {
          "indexed": true,
          "internalType": "bytes32",
          "name": "id",
          "type": "bytes32"
        },
        {
          "indexed": false,
          "internalType": "bytes32",
          "name": "salt",
          "type": "bytes32"
        }
      ],
      "name": "CallSalt",
      "type": "event"
    },
    {
      "anonymous": false,
      "inputs": [
        {
          "indexed": true,
          "internalType": "bytes32",
          "name": "id",
          "type": "bytes32"
        },
        {
          "indexed": true,
          "internalType": "uint256",
          "name": "index",
          "type": "uint256"
        },
        {
          "indexed": false,
          "internalType": "address",
          "name": "target",
          "type": "address"
        },
        {
          "indexed": false,
          "internalType": "uint256",
          "name": "value",
          "type": "uint256"
        },
        {
          "indexed": false,
          "internalType": "bytes",
          "name": "data",
          "type": "bytes"
        },
        {
          "indexed": false,
          "internalType": "bytes32",
          "name": "predecessor",
          "type": "bytes32"
        },
        {
          "indexed": false,
          "internalType": "uint256",
          "name": "delay",
          "type": "uint256"
        }
      ],
      "name": "CallScheduled",
      "type": "event"
    },
    {
      "anonymous": false,
      "inputs": [
        {
          "indexed": true,
          "internalType": "bytes32",
          "name": "id",
          "type": "bytes32"
        }
      ],
      "name": "Cancelled",
      "type": "event"
    },
    {
      "anonymous": false,
      "inputs": [
        {
          "indexed": false,
          "internalType": "uint256",
          "name": "oldDuration",
          "type": "uint256"
        },
        {
          "indexed": false,
          "internalType": "uint256",
          "name": "newDuration",
          "type": "uint256"
        }
      ],
      "name": "MinDelayChange",
      "type": "event"
    },
    {
      "anonymous": false,
      "inputs": [
        {
          "indexed": true,
          "internalType": "bytes32",
          "name": "role",
          "type": "bytes32"
        },
        {
          "indexed": true,
          "internalType": "bytes32",
          "name": "previousAdminRole",
          "type": "bytes32"
        },
        {
          "indexed": true,
          "internalType": "bytes32",
          "name": "newAdminRole",
          "type": "bytes32"
        }
      ],
      "name": "RoleAdminChanged",
      "type": "event"
    },
    {
      "anonymous": false,
      "inputs": [
        {
          "indexed": true,
          "internalType": "bytes32",
          "name": "role",
          "type": "bytes32"
        },
        {
          "indexed": true,
          "internalType": "address",
          "name": "account",
          "type": "address"
        },
        {
          "indexed": true,
          "internalType": "address",
          "name": "sender",
          "type": "address"
        }
      ],
      "name": "RoleGranted",
      "type": "event"
    },
    {
      "anonymous": false,
      "inputs": [
        {
          "indexed": true,
          "internalType": "bytes32",
          "name": "role",
          "type": "bytes32"
        },
        {
          "indexed": true,
          "internalType": "address",
          "name": "account",
          "type": "address"
        },
        {
          "indexed": true,
          "internalType": "address",
          "name": "sender",
          "type": "address"
        }
      ],
      "name": "RoleRevoked",
      "type": "event"
    },
    {
      "inputs": [],
      "name": "CANCELLER_ROLE",
      "outputs": [
        {
          "internalType": "bytes32",
          "name": "",
          "type": "bytes32"
        }
      ],
      "stateMutability": "view",
      "type": "function"
    },
    {
      "inputs": [],
      "name": "DEFAULT_ADMIN_ROLE",
      "outputs": [
        {
          "internalType": "bytes32",
          "name": "",
          "type": "bytes32"
        }
      ],
      "stateMutability": "view",
      "type": "function"
    },
    {
      "inputs": [],
      "name": "EXECUTOR_ROLE",
      "outputs": [
        {
          "internalType": "bytes32",
          "name": "",
          "type": "bytes32"
        }
      ],
      "stateMutability": "view",
      "type": "function"
    },
    {
      "inputs": [],
      "name": "PROPOSER_ROLE",
      "outputs": [
        {
          "internalType": "bytes32",
          "name": "",
          "type": "bytes32"
        }
      ],
      "stateMutability": "view",
      "type": "function"
    },
    {
      "inputs": [
        {
          "internalType": "bytes32",
          "name": "id",
          "type": "bytes32"
        }
      ],
      "name": "cancel",
      "outputs": [],
      "stateMutability": "nonpayable",
      "type": "function"
    },
    {
      "inputs": [
        {
          "internalType": "address",
          "name": "target",
          "type": "address"
        },
        {
          "internalType": "uint256",
          "name": "value",
          "type": "uint256"
        },
        {
          "internalType": "bytes",
          "name": "payload",
          "type": "bytes"
        },
        {
          "internalType": "bytes32",
          "name": "predecessor",
          "type": "bytes32"
        },
        {
          "internalType": "bytes32",
          "name": "salt",
          "type": "bytes32"
        }
      ],
      "name": "execute",
      "outputs": [],
      "stateMutability": "payable",
      "type": "function"
    },
    {
      "inputs": [
        {
          "internalType": "address[]",
          "name": "targets",
          "type": "address[]"
        },
        {
          "internalType": "uint256[]",
          "name": "values",
          "type": "uint256[]"
        },
        {
          "internalType": "bytes[]",
          "name": "payloads",
          "type": "bytes[]"
        },
        {
          "internalType": "bytes32",
          "name": "predecessor",
          "type": "bytes32"
        },
        {
          "internalType": "bytes32",
          "name": "salt",
          "type": "bytes32"
        }
      ],
      "name": "executeBatch",
      "outputs": [],
      "stateMutability": "payable",
      "type": "function"
    },
    {
      "inputs": [],
      "name": "getMinDelay",
      "outputs": [
        {
          "internalType": "uint256",
          "name": "",
          "type": "uint256"
        }
      ],
      "stateMutability": "view",
      "type": "function"
    },
    {
      "inputs": [
        {
          "internalType": "bytes32",
          "name": "id",
          "type": "bytes32"
        }
      ],
      "name": "getOperationState",
      "outputs": [
        {
          "internalType": "enum TimelockController.OperationState",
          "name": "",
          "type": "uint8"
        }
      ],
      "stateMutability": "view",
      "type": "function"
    },
    {
      "inputs": [
        {
          "internalType": "bytes32",
          "name": "role",
          "type": "bytes32"
        }
      ],
      "name": "getRoleAdmin",
      "outputs": [
        {
          "internalType": "bytes32",
          "name": "",
          "type": "bytes32"
        }
      ],
      "stateMutability": "view",
      "type": "function"
    },
    {
      "inputs": [
        {
          "internalType": "bytes32",
          "name": "id",
          "type": "bytes32"
        }
      ],
      "name": "getTimestamp",
      "outputs": [
        {
          "internalType": "uint256",
          "name": "",
          "type": "uint256"
        }
      ],
      "stateMutability": "view",
      "type": "function"
    },
    {
      "inputs": [
        {
          "internalType": "bytes32",
          "name": "role",
          "type": "bytes32"
        },
        {
          "internalType": "address",
          "name": "account",
          "type": "address"
        }
      ],
      "name": "grantRole",
      "outputs": [],
      "stateMutability": "nonpayable",
      "type": "function"
    },
    {
      "inputs": [
        {
          "internalType": "bytes32",
          "name": "role",
          "type": "bytes32"
        },
        {
          "internalType": "address",
          "name": "account",
          "type": "address"
        }
      ],
      "name": "hasRole",
      "outputs": [
        {
          "internalType": "bool",
          "name": "",
          "type": "bool"
        }
      ],
      "stateMutability": "view",
      "type": "function"
    },
    {
      "inputs": [
        {
          "internalType": "address",
          "name": "target",
          "type": "address"
        },
        {
          "internalType": "uint256",
          "name": "value",
          "type": "uint256"
        },
        {
          "internalType": "bytes",
          "name": "data",
          "type": "bytes"
        },
        {
          "internalType": "bytes32",
          "name": "predecessor",
          "type": "bytes32"
        },
        {
          "internalType": "bytes32",
          "name": "salt",
          "type": "bytes32"
        }
      ],
      "name": "hashOperation",
      "outputs": [
        {
          "internalType": "bytes32",
          "name": "",
          "type": "bytes32"
        }
      ],
      "stateMutability": "pure",
      "type": "function"
    },
    {
      "inputs": [
        {
          "internalType": "address[]",
          "name": "targets",
          "type": "address[]"
        },
        {
          "internalType": "uint256[]",
          "name": "values",
          "type": "uint256[]"
        },
        {
          "internalType": "bytes[]",
          "name": "payloads",
          "type": "bytes[]"
        },
        {
          "internalType": "bytes32",
          "name": "predecessor",
          "type": "bytes32"
        },
        {
          "internalType": "bytes32",
          "name": "salt",
          "type": "bytes32"
        }
      ],
      "name": "hashOperationBatch",
      "outputs": [
        {
          "internalType": "bytes32",
          "name": "",
          "type": "bytes32"
        }
      ],
      "stateMutability": "pure",
      "type": "function"
    },
    {
      "inputs": [
        {
          "internalType": "bytes32",
          "name": "id",
          "type": "bytes32"
        }
      ],
      "name": "isOperation",
      "outputs": [
        {
          "internalType": "bool",
          "name": "",
          "type": "bool"
        }
      ],
      "stateMutability": "view",
      "type": "function"
    },
    {
      "inputs": [
        {
          "internalType": "bytes32",
          "name": "id",
          "type": "bytes32"
        }
      ],
      "name": "isOperationDone",
      "outputs": [
        {
          "internalType": "bool",
          "name": "",
          "type": "bool"
        }
      ],
      "stateMutability": "view",
      "type": "function"
    },
    {
      "inputs": [
        {
          "internalType": "bytes32",
          "name": "id",
          "type": "bytes32"
        }
      ],
      "name": "isOperationPending",
      "outputs": [
        {
          "internalType": "bool",
          "name": "",
          "type": "bool"
        }
      ],
      "stateMutability": "view",
      "type": "function"
    },
    {
      "inputs": [
        {
          "internalType": "bytes32",
          "name": "id",
          "type": "bytes32"
        }
      ],
      "name": "isOperationReady",
      "outputs": [
        {
          "internalType": "bool",
          "name": "",
          "type": "bool"
        }
      ],
      "stateMutability": "view",
      "type": "function"
    },
    {
      "inputs": [
        {
          "internalType": "address",
          "name": "",
          "type": "address"
        },
        {
          "internalType": "address",
          "name": "",
          "type": "address"
        },
        {
          "internalType": "uint256[]",
          "name": "",
          "type": "uint256[]"
        },
        {
          "internalType": "uint256[]",
          "name": "",
          "type": "uint256[]"
        },
        {
          "internalType": "bytes",
          "name": "",
          "type": "bytes"
        }
      ],
      "name": "onERC1155BatchReceived",
      "outputs": [
        {
          "internalType": "bytes4",
          "name": "",
          "type": "bytes4"
        }
      ],
      "stateMutability": "nonpayable",
      "type": "function"
    },
    {
      "inputs": [
        {
          "internalType": "address",
          "name": "",
          "type": "address"
        },
        {
          "internalType": "address",
          "name": "",
          "type": "address"
        },
        {
          "internalType": "uint256",
          "name": "",
          "type": "uint256"
        },
        {
          "internalType": "uint256",
          "name": "",
          "type": "uint256"
        },
        {
          "internalType": "bytes",
          "name": "",
          "type": "bytes"
        }
      ],
      "name": "onERC1155Received",
      "outputs": [
        {
          "internalType": "bytes4",
          "name": "",
          "type": "bytes4"
        }
      ],
      "stateMutability": "nonpayable",
      "type": "function"
    },
    {
      "inputs": [
        {
          "internalType": "address",
          "name": "",
          "type": "address"
        },
        {
          "internalType": "address",
          "name": "",
          "type": "address"
        },
        {
          "internalType": "uint256",
          "name": "",
          "type": "uint256"
        },
        {
          "internalType": "bytes",
          "name": "",
          "type": "bytes"
        }
      ],
      "name": "onERC721Received",
      "outputs": [
        {
          "internalType": "bytes4",
          "name": "",
          "type": "bytes4"
        }
      ],
      "stateMutability": "nonpayable",
      "type": "function"
    },
    {
      "inputs": [
        {
          "internalType": "bytes32",
          "name": "role",
          "type": "bytes32"
        },
        {
          "internalType": "address",
          "name": "callerConfirmation",
          "type": "address"
        }
      ],
      "name": "renounceRole",
      "outputs": [],
      "stateMutability": "nonpayable",
      "type": "function"
    },
    {
      "inputs": [
        {
          "internalType": "bytes32",
          "name": "role",
          "type": "bytes32"
        },
        {
          "internalType": "address",
          "name": "account",
          "type": "address"
        }
      ],
      "name": "revokeRole",
      "outputs": [],
      "stateMutability": "nonpayable",
      "type": "function"
    },
    {
      "inputs": [
        {
          "internalType": "address",
          "name": "target",
          "type": "address"
        },
        {
          "internalType": "uint256",
          "name": "value",
          "type": "uint256"
        },
        {
          "internalType": "bytes",
          "name": "data",
          "type": "bytes"
        },
        {
          "internalType": "bytes32",
          "name": "predecessor",
          "type": "bytes32"
        },
        {
          "internalType": "bytes32",
          "name": "salt",
          "type": "bytes32"
        },
        {
          "internalType": "uint256",
          "name": "delay",
          "type": "uint256"
        }
      ],
      "name": "schedule",
      "outputs": [],
      "stateMutability": "nonpayable",
      "type": "function"
    },
    {
      "inputs": [
        {
          "internalType": "address[]",
          "name": "targets",
          "type": "address[]"
        },
        {
          "internalType": "uint256[]",
          "name": "values",
          "type": "uint256[]"
        },
        {
          "internalType": "bytes[]",
          "name": "payloads",
          "type": "bytes[]"
        },
        {
          "internalType": "bytes32",
          "name": "predecessor",
          "type": "bytes32"
        },
        {
          "internalType": "bytes32",
          "name": "salt",
          "type": "bytes32"
        },
        {
          "internalType": "uint256",
          "name": "delay",
          "type": "uint256"
        }
      ],
      "name": "scheduleBatch",
      "outputs": [],
      "stateMutability": "nonpayable",
      "type": "function"
    },
    {
      "inputs": [
        {
          "internalType": "bytes4",
          "name": "interfaceId",
          "type": "bytes4"
        }
      ],
      "name": "supportsInterface",
      "outputs": [
        {
          "internalType": "bool",
          "name": "",
          "type": "bool"
        }
      ],
      "stateMutability": "view",
      "type": "function"
    },
    {
      "inputs": [
        {
          "internalType": "uint256",
          "name": "newDelay",
          "type": "uint256"
        }
      ],
      "name": "updateDelay",
      "outputs": [],
      "stateMutability": "nonpayable",
      "type": "function"
    },
    {
      "stateMutability": "payable",
      "type": "receive"
    }
  ],
  "bytecode": "0x60806040523480156200001157600080fd5b5060405162001d8738038062001d8783398101604081905262000034916200032f565b620000416000306200019d565b506001600160a01b0381161562000061576200005f6000826200019d565b505b60005b83518110156200010157620000bc7fb09aa5aeb3702cfd50b6b62bc4532604938f21248a27a1d5ca736082b6819cc1858381518110620000a857620000a8620003b6565b60200260200101516200019d60201b60201c565b50620000f77ffd643c72710c63c0180259aba6b2d05451e3591a24e58b62239378085726f783858381518110620000a857620000a8620003b6565b5060010162000064565b5060005b82518110156200015357620001497fd8aa0f3194971a2a116679f7c2090f6939c8d4e01a2a8d7e41d55e5351469e63848381518110620000a857620000a8620003b6565b5060010162000105565b5060028490556040805160008152602081018690527f11c24f4ead16507c69ac467fbd5e4eed5fb5c699626d2cc6d66421df253886d5910160405180910390a150505050620003cc565b6000828152602081815260408083206001600160a01b038516845290915281205460ff1662000242576000838152602081815260408083206001600160a01b03861684529091529020805460ff19166001179055620001f93390565b6001600160a01b0316826001600160a01b0316847f2f8788117e7eff1d82e926ec794901d17c78024a50270940304540a733656f0d60405160405180910390a450600162000246565b5060005b92915050565b634e487b7160e01b600052604160045260246000fd5b80516001600160a01b03811681146200027a57600080fd5b919050565b600082601f8301126200029157600080fd5b815160206001600160401b0380831115620002b057620002b06200024c565b8260051b604051601f19603f83011681018181108482111715620002d857620002d86200024c565b6040529384526020818701810194908101925087851115620002f957600080fd5b6020870191505b848210156200032457620003148262000262565b8352918301919083019062000300565b979650505050505050565b600080600080608085870312156200034657600080fd5b845160208601519094506001600160401b03808211156200036657600080fd5b62000374888389016200027f565b945060408701519150808211156200038b57600080fd5b506200039a878288016200027f565b925050620003ab6060860162000262565b905092959194509250565b634e487b7160e01b600052603260045260246000fd5b6119ab80620003dc6000396000f3fe60806040526004361061015b5760003560e01c80638065657f116100bc5780638065657f146103825780638f2a0bb0146103a25780638f61f4f5146103c257806391d14854146103e4578063a217fddf14610404578063b08e51c014610419578063b1c5f4271461044d578063bc197c811461046d578063c4d252f514610499578063d45c4435146104b9578063d547741f146104e6578063e38335e514610506578063f23a6e6114610519578063f27a0c921461054557600080fd5b806301d5062a1461016757806301ffc9a71461018957806307bd0265146101be578063134008d3146101ee57806313bc9f2014610201578063150b7a0214610221578063248a9ca3146102655780632ab0f529146102955780632f2ff15d146102b557806331d50750146102d557806336568abe146102f5578063584b153e1461031557806364d62353146103355780637958004c1461035557600080fd5b3661016257005b600080fd5b34801561017357600080fd5b506101876101823660046110ed565b61055a565b005b34801561019557600080fd5b506101a96101a4366004611161565b61061e565b60405190151581526020015b60405180910390f35b3480156101ca57600080fd5b506101e060008051602061195683398151915281565b6040519081526020016101b5565b6101876101fc36600461118b565b61062f565b34801561020d57600080fd5b506101a961021c3660046111f6565b6106d2565b34801561022d57600080fd5b5061024c61023c3660046112c4565b630a85bd0160e11b949350505050565b6040516001600160e01b031990911681526020016101b5565b34801561027157600080fd5b506101e06102803660046111f6565b60009081526020819052604090206001015490565b3480156102a157600080fd5b506101a96102b03660046111f6565b6106f8565b3480156102c157600080fd5b506101876102d036600461132b565b610701565b3480156102e157600080fd5b506101a96102f03660046111f6565b61072c565b34801561030157600080fd5b5061018761031036600461132b565b610751565b34801561032157600080fd5b506101a96103303660046111f6565b610789565b34801561034157600080fd5b506101876103503660046111f6565b6107cf565b34801561036157600080fd5b506103756103703660046111f6565b610842565b6040516101b5919061136d565b34801561038e57600080fd5b506101e061039d36600461118b565b61088d565b3480156103ae57600080fd5b506101876103bd3660046113d9565b6108cc565b3480156103ce57600080fd5b506101e060008051602061193683398151915281565b3480156103f057600080fd5b506101a96103ff36600461132b565b610a48565b34801561041057600080fd5b506101e0600081565b34801561042557600080fd5b506101e07ffd643c72710c63c0180259aba6b2d05451e3591a24e58b62239378085726f78381565b34801561045957600080fd5b506101e061046836600461148a565b610a71565b34801561047957600080fd5b5061024c6104883660046115b1565b63bc197c8160e01b95945050505050565b3480156104a557600080fd5b506101876104b43660046111f6565b610ab6565b3480156104c557600080fd5b506101e06104d43660046111f6565b60009081526001602052604090205490565b3480156104f257600080fd5b5061018761050136600461132b565b610b61565b61018761051436600461148a565b610b86565b34801561052557600080fd5b5061024c61053436600461165a565b63f23a6e6160e01b95945050505050565b34801561055157600080fd5b506002546101e0565b60008051602061193683398151915261057281610cfb565b600061058289898989898961088d565b905061058e8184610d08565b6000817f4cf4410cc57040e44862ef0f45f3dd5a5e02db8eb8add648d4b0e236f1d07dca8b8b8b8b8b8a6040516105ca969594939291906116e7565b60405180910390a3831561061357807f20fda5fd27a1ea7bf5b9567f143ac5470bb059374a27e8f67cb44f946f6d03878560405161060a91815260200190565b60405180910390a25b505050505050505050565b600061062982610d9c565b92915050565b600080516020611956833981519152610649816000610a48565b610657576106578133610dc1565b600061066788888888888861088d565b90506106738185610dfe565b61067f88888888610e4c565b6000817fc2617efa69bab66782fa219543714338489c4e9e178271560a91b82c3f612b588a8a8a8a6040516106b79493929190611724565b60405180910390a36106c881610ec4565b5050505050505050565b600060025b6106e083610842565b60038111156106f1576106f1611357565b1492915050565b600060036106d7565b60008281526020819052604090206001015461071c81610cfb565b6107268383610ef0565b50505050565b60008061073883610842565b600381111561074957610749611357565b141592915050565b6001600160a01b038116331461077a5760405163334bd91960e11b815260040160405180910390fd5b6107848282610f82565b505050565b60008061079583610842565b905060018160038111156107ab576107ab611357565b14806107c8575060028160038111156107c6576107c6611357565b145b9392505050565b333081146108005760405163e2850c5960e01b81526001600160a01b03821660048201526024015b60405180910390fd5b60025460408051918252602082018490527f11c24f4ead16507c69ac467fbd5e4eed5fb5c699626d2cc6d66421df253886d5910160405180910390a150600255565b600081815260016020526040812054806000036108625750600092915050565b600181036108735750600392915050565b428111156108845750600192915050565b50600292915050565b60008686868686866040516020016108aa969594939291906116e7565b6040516020818303038152906040528051906020012090509695505050505050565b6000805160206119368339815191526108e481610cfb565b88871415806108f35750888514155b15610925576040516001624fcdef60e01b03198152600481018a905260248101869052604481018890526064016107f7565b60006109378b8b8b8b8b8b8b8b610a71565b90506109438184610d08565b60005b8a8110156109f95780827f4cf4410cc57040e44862ef0f45f3dd5a5e02db8eb8add648d4b0e236f1d07dca8e8e8581811061098357610983611756565b9050602002016020810190610998919061176c565b8d8d868181106109aa576109aa611756565b905060200201358c8c878181106109c3576109c3611756565b90506020028101906109d59190611787565b8c8b6040516109e9969594939291906116e7565b60405180910390a3600101610946565b508315610a3b57807f20fda5fd27a1ea7bf5b9567f143ac5470bb059374a27e8f67cb44f946f6d038785604051610a3291815260200190565b60405180910390a25b5050505050505050505050565b6000918252602082815260408084206001600160a01b0393909316845291905290205460ff1690565b60008888888888888888604051602001610a92989796959493929190611863565b60405160208183030381529060405280519060200120905098975050505050505050565b7ffd643c72710c63c0180259aba6b2d05451e3591a24e58b62239378085726f783610ae081610cfb565b610ae982610789565b610b255781610af86002610fed565b610b026001610fed565b604051635ead8eb560e01b815260048101939093521760248201526044016107f7565b6000828152600160205260408082208290555183917fbaa1eb22f2a492ba1a5fea61b8df4d27c6c8b5f3971e63bb58fa14ff72eedb7091a25050565b600082815260208190526040902060010154610b7c81610cfb565b6107268383610f82565b600080516020611956833981519152610ba0816000610a48565b610bae57610bae8133610dc1565b8786141580610bbd5750878414155b15610bef576040516001624fcdef60e01b031981526004810189905260248101859052604481018790526064016107f7565b6000610c018a8a8a8a8a8a8a8a610a71565b9050610c0d8185610dfe565b60005b89811015610ce55760008b8b83818110610c2c57610c2c611756565b9050602002016020810190610c41919061176c565b905060008a8a84818110610c5757610c57611756565b9050602002013590503660008a8a86818110610c7557610c75611756565b9050602002810190610c879190611787565b91509150610c9784848484610e4c565b84867fc2617efa69bab66782fa219543714338489c4e9e178271560a91b82c3f612b5886868686604051610cce9493929190611724565b60405180910390a350505050806001019050610c10565b50610cef81610ec4565b50505050505050505050565b610d058133610dc1565b50565b610d118261072c565b15610d435781610d216000610fed565b604051635ead8eb560e01b8152600481019290925260248201526044016107f7565b6000610d4e60025490565b905080821015610d7b57604051635433660960e01b815260048101839052602481018290526044016107f7565b610d858242611904565b600093845260016020526040909320929092555050565b60006001600160e01b03198216630271189760e51b1480610629575061062982611010565b610dcb8282610a48565b610dfa5760405163e2517d3f60e01b81526001600160a01b0382166004820152602481018390526044016107f7565b5050565b610e07826106d2565b610e165781610d216002610fed565b8015801590610e2b5750610e29816106f8565b155b15610dfa5760405163121534c360e31b8152600481018290526024016107f7565b600080856001600160a01b0316858585604051610e6a929190611925565b60006040518083038185875af1925050503d8060008114610ea7576040519150601f19603f3d011682016040523d82523d6000602084013e610eac565b606091505b5091509150610ebb8282611045565b50505050505050565b610ecd816106d2565b610edc5780610d216002610fed565b600090815260016020819052604090912055565b6000610efc8383610a48565b610f7a576000838152602081815260408083206001600160a01b03861684529091529020805460ff19166001179055610f323390565b6001600160a01b0316826001600160a01b0316847f2f8788117e7eff1d82e926ec794901d17c78024a50270940304540a733656f0d60405160405180910390a4506001610629565b506000610629565b6000610f8e8383610a48565b15610f7a576000838152602081815260408083206001600160a01b0386168085529252808320805460ff1916905551339286917ff6391f5c32d9c69d2a47ea670b442974b53935d1edc7fd64eb21e047a839171b9190a4506001610629565b600081600381111561100157611001611357565b600160ff919091161b92915050565b60006001600160e01b03198216637965db0b60e01b148061062957506301ffc9a760e01b6001600160e01b0319831614610629565b60608261105a5761105582611061565b610629565b5080610629565b80511561107057805160208201fd5b60405163d6bda27560e01b815260040160405180910390fd5b80356001600160a01b03811681146110a057600080fd5b919050565b60008083601f8401126110b757600080fd5b5081356001600160401b038111156110ce57600080fd5b6020830191508360208285010111156110e657600080fd5b9250929050565b600080600080600080600060c0888a03121561110857600080fd5b61111188611089565b96506020880135955060408801356001600160401b0381111561113357600080fd5b61113f8a828b016110a5565b989b979a50986060810135976080820135975060a09091013595509350505050565b60006020828403121561117357600080fd5b81356001600160e01b0319811681146107c857600080fd5b60008060008060008060a087890312156111a457600080fd5b6111ad87611089565b95506020870135945060408701356001600160401b038111156111cf57600080fd5b6111db89828a016110a5565b979a9699509760608101359660809091013595509350505050565b60006020828403121561120857600080fd5b5035919050565b634e487b7160e01b600052604160045260246000fd5b604051601f8201601f191681016001600160401b038111828210171561124d5761124d61120f565b604052919050565b600082601f83011261126657600080fd5b81356001600160401b0381111561127f5761127f61120f565b611292601f8201601f1916602001611225565b8181528460208386010111156112a757600080fd5b816020850160208301376000918101602001919091529392505050565b600080600080608085870312156112da57600080fd5b6112e385611089565b93506112f160208601611089565b92506040850135915060608501356001600160401b0381111561131357600080fd5b61131f87828801611255565b91505092959194509250565b6000806040838503121561133e57600080fd5b8235915061134e60208401611089565b90509250929050565b634e487b7160e01b600052602160045260246000fd5b602081016004831061138f57634e487b7160e01b600052602160045260246000fd5b91905290565b60008083601f8401126113a757600080fd5b5081356001600160401b038111156113be57600080fd5b6020830191508360208260051b85010111156110e657600080fd5b600080600080600080600080600060c08a8c0312156113f757600080fd5b89356001600160401b038082111561140e57600080fd5b61141a8d838e01611395565b909b50995060208c013591508082111561143357600080fd5b61143f8d838e01611395565b909950975060408c013591508082111561145857600080fd5b506114658c828d01611395565b9a9d999c50979a969997986060880135976080810135975060a0013595509350505050565b60008060008060008060008060a0898b0312156114a657600080fd5b88356001600160401b03808211156114bd57600080fd5b6114c98c838d01611395565b909a50985060208b01359150808211156114e257600080fd5b6114ee8c838d01611395565b909850965060408b013591508082111561150757600080fd5b506115148b828c01611395565b999c989b509699959896976060870135966080013595509350505050565b600082601f83011261154357600080fd5b813560206001600160401b0382111561155e5761155e61120f565b8160051b61156d828201611225565b928352848101820192828101908785111561158757600080fd5b83870192505b848310156115a65782358252918301919083019061158d565b979650505050505050565b600080600080600060a086880312156115c957600080fd5b6115d286611089565b94506115e060208701611089565b935060408601356001600160401b03808211156115fc57600080fd5b61160889838a01611532565b9450606088013591508082111561161e57600080fd5b61162a89838a01611532565b9350608088013591508082111561164057600080fd5b5061164d88828901611255565b9150509295509295909350565b600080600080600060a0868803121561167257600080fd5b61167b86611089565b945061168960208701611089565b9350604086013592506060860135915060808601356001600160401b038111156116b257600080fd5b61164d88828901611255565b81835281816020850137506000828201602090810191909152601f909101601f19169091010190565b60018060a01b038716815285602082015260a06040820152600061170f60a0830186886116be565b60608301949094525060800152949350505050565b60018060a01b038516815283602082015260606040820152600061174c6060830184866116be565b9695505050505050565b634e487b7160e01b600052603260045260246000fd5b60006020828403121561177e57600080fd5b6107c882611089565b6000808335601e1984360301811261179e57600080fd5b8301803591506001600160401b038211156117b857600080fd5b6020019150368190038213156110e657600080fd5b6000838385526020808601955060208560051b8301018460005b8781101561185657848303601f19018952813536889003601e1901811261180d57600080fd5b870184810190356001600160401b0381111561182857600080fd5b80360382131561183757600080fd5b6118428582846116be565b9a86019a94505050908301906001016117e7565b5090979650505050505050565b60a0808252810188905260008960c08301825b8b8110156118a4576001600160a01b0361188f84611089565b16825260209283019290910190600101611876565b5083810360208501528881526001600160fb1b038911156118c457600080fd5b8860051b9150818a602083013701828103602090810160408501526118ec90820187896117cd565b60608401959095525050608001529695505050505050565b8082018082111561062957634e487b7160e01b600052601160045260246000fd5b818382376000910190815291905056feb09aa5aeb3702cfd50b6b62bc4532604938f21248a27a1d5ca736082b6819cc1d8aa0f3194971a2a116679f7c2090f6939c8d4e01a2a8d7e41d55e5351469e63a26469706673582212206946c554b0cb7d491214d9dc7ca935eef780a2d39b73c22b6187217e8cfb343964736f6c63430008160033",
  "linkReferences": {},
  "deployedLinkReferences": {}
}