{
  "_format": "hh-sol-artifact-1",
  "contractName": "FeeManager",
  "sourceName": "contracts/FeeManager.sol",
  "abi": [
    {
      "inputs": [],
      "stateMutability": "nonpayable",
      "type": "constructor"
    },
    {
      "inputs": [],
      "name": "InvalidInitialization",
      "type": "error"
    },
    {
      "inputs": [],
      "name": "InvalidSplit",
      "type": "error"
    },
    {
      "inputs": [],
      "name": "InvalidToken",
      "type": "error"
    },
    {
      "inputs": [],
      "name": "NotInitializing",
      "type": "error"
    },
    {
      "inputs": [
        {
          "internalType": "address",
          "name": "owner",
          "type": "address"
        }
      ],
      "name": "OwnableInvalidOwner",
      "type": "error"
    },
    {
      "inputs": [
        {
          "internalType": "address",
          "name": "account",
          "type": "address"
        }
      ],
      "name": "OwnableUnauthorizedAccount",
      "type": "error"
    },
    {
      "anonymous": false,
      "inputs": [
        {
          "indexed": true,
          "internalType": "address",
          "name": "token",
          "type": "address"
        },
        {
          "indexed": true,
          "internalType": "address",
          "name": "lpReceiver",
          "type": "address"
        },
        {
          "indexed": true,
          "internalType": "address",
          "name": "treasuryReceiver",
          "type": "address"
        }
      ],
      "name": "FeeManagerInitialized",
      "type": "event"
    },
    {
      "anonymous": false,
      "inputs": [
        {
          "indexed": false,
          "internalType": "uint64",
          "name": "version",
          "type": "uint64"
        }
      ],
      "name": "Initialized",
      "type": "event"
    },
    {
      "anonymous": false,
      "inputs": [
        {
          "indexed": true,
          "internalType": "address",
          "name": "previousOwner",
          "type": "address"
        },
        {
          "indexed": true,
          "internalType": "address",
          "name": "newOwner",
          "type": "address"
        }
      ],
      "name": "OwnershipTransferred",
      "type": "event"
    },
    {
      "anonymous": false,
      "inputs": [
        {
          "indexed": true,
          "internalType": "address",
          "name": "lp",
          "type": "address"
        },
        {
          "indexed": true,
          "internalType": "address",
          "name": "treasury",
          "type": "address"
        }
      ],
      "name": "ReceiversUpdated",
      "type": "event"
    },
    {
      "anonymous": false,
      "inputs": [
        {
          "indexed": false,
          "internalType": "uint256",
          "name": "lpShare",
          "type": "uint256"
        },
        {
          "indexed": false,
          "internalType": "uint256",
          "name": "treasuryShare",
          "type": "uint256"
        }
      ],
      "name": "SharesUpdated",
      "type": "event"
    },
    {
      "inputs": [],
      "name": "BPS_DENOMINATOR",
      "outputs": [
        {
          "internalType": "uint256",
          "name": "",
          "type": "uint256"
        }
      ],
      "stateMutability": "view",
      "type": "function"
    },
    {
      "inputs": [],
      "name": "feeToken",
      "outputs": [
        {
          "internalType": "address",
          "name": "",
          "type": "address"
        }
      ],
      "stateMutability": "view",
      "type": "function"
    },
    {
      "inputs": [
        {
          "internalType": "uint256",
          "name": "amount",
          "type": "uint256"
        }
      ],
      "name": "getFeeSplit",
      "outputs": [
        {
          "internalType": "uint256",
          "name": "lpAmount",
          "type": "uint256"
        },
        {
          "internalType": "uint256",
          "name": "treasuryAmount",
          "type": "uint256"
        }
      ],
      "stateMutability": "view",
      "type": "function"
    },
    {
      "inputs": [
        {
          "internalType": "address",
          "name": "_token",
          "type": "address"
        },
        {
          "internalType": "address",
          "name": "_lpReceiver",
          "type": "address"
        },
        {
          "internalType": "address",
          "name": "_treasuryReceiver",
          "type": "address"
        }
      ],
      "name": "initialize",
      "outputs": [],
      "stateMutability": "nonpayable",
      "type": "function"
    },
    {
      "inputs": [],
      "name": "lpReceiver",
      "outputs": [
        {
          "internalType": "address",
          "name": "",
          "type": "address"
        }
      ],
      "stateMutability": "view",
      "type": "function"
    },
    {
      "inputs": [],
      "name": "lpShare",
      "outputs": [
        {
          "internalType": "uint256",
          "name": "",
          "type": "uint256"
        }
      ],
      "stateMutability": "view",
      "type": "function"
    },
    {
      "inputs": [],
      "name": "owner",
      "outputs": [
        {
          "internalType": "address",
          "name": "",
          "type": "address"
        }
      ],
      "stateMutability": "view",
      "type": "function"
    },
    {
      "inputs": [],
      "name": "renounceOwnership",
      "outputs": [],
      "stateMutability": "nonpayable",
      "type": "function"
    },
    {
      "inputs": [
        {
          "internalType": "address",
          "name": "newOwner",
          "type": "address"
        }
      ],
      "name": "transferOwnership",
      "outputs": [],
      "stateMutability": "nonpayable",
      "type": "function"
    },
    {
      "inputs": [],
      "name": "treasuryReceiver",
      "outputs": [
        {
          "internalType": "address",
          "name": "",
          "type": "address"
        }
      ],
      "stateMutability": "view",
      "type": "function"
    },
    {
      "inputs": [],
      "name": "treasuryShare",
      "outputs": [
        {
          "internalType": "uint256",
          "name": "",
          "type": "uint256"
        }
      ],
      "stateMutability": "view",
      "type": "function"
    },
    {
      "inputs": [
        {
          "internalType": "address",
          "name": "_lp",
          "type": "address"
        },
        {
          "internalType": "address",
          "name": "_treasury",
          "type": "address"
        }
      ],
      "name": "updateReceivers",
      "outputs": [],
      "stateMutability": "nonpayable",
      "type": "function"
    },
    {
      "inputs": [
        {
          "internalType": "uint256",
          "name": "_lpShare",
          "type": "uint256"
        },
        {
          "internalType": "uint256",
          "name": "_treasuryShare",
          "type": "uint256"
        }
      ],
      "name": "updateShares",
      "outputs": [],
      "stateMutability": "nonpayable",
      "type": "function"
    }
  ],
  "bytecode": "0x608060405234801561001057600080fd5b5061001961001e565b6100d0565b7ff0c57e16840df040f15088dc2f81fe391c3923bec73e23a9662efc9c229c6a00805468010000000000000000900460ff161561006e5760405163f92ee8a960e01b815260040160405180910390fd5b80546001600160401b03908116146100cd5780546001600160401b0319166001600160401b0390811782556040519081527fc7f505b2f371ae2175ee4913f4499e1f2633a7b5936321eed1cdaeb6115181d29060200160405180910390a15b50565b61085f806100df6000396000f3fe608060405234801561001057600080fd5b50600436106100af5760003560e01c806308b1fd8f146100b45780631f0c57fc146100dd5780633b608af2146100f0578063647846a514610118578063647902081461012b57806366d0c84c14610140578063715018a6146101535780637796ff371461015b5780638da5cb5b14610172578063c0c53b8b1461017a578063e1a452181461018d578063ebc38ab014610196578063f2fde38b1461019f575b600080fd5b6001546100c7906001600160a01b031681565b6040516100d491906106b1565b60405180910390f35b6000546100c7906001600160a01b031681565b6101036100fe3660046106c5565b6101b2565b604080519283526020830191909152016100d4565b6002546100c7906001600160a01b031681565b61013e6101393660046106de565b61021d565b005b61013e61014e36600461071c565b610297565b61013e610335565b61016460045481565b6040519081526020016100d4565b6100c7610349565b61013e61018836600461074f565b610364565b61016461271081565b61016460035481565b61013e6101ad366004610792565b610535565b6000806127106004546003546101c891906107ca565b146101e65760405163bcd55b0f60e01b815260040160405180910390fd5b6000612710600354856101f991906107dd565b61020391906107f4565b905060006102118286610816565b91959194509092505050565b61022561057c565b61271061023282846107ca565b146102505760405163bcd55b0f60e01b815260040160405180910390fd5b6003829055600481905560408051838152602081018390527fe5a0c91086f91c001ad2bce018f8c7818182156e1fd1d3b81788aadd4b2b3021910160405180910390a15050565b61029f61057c565b6001600160a01b03821615806102bc57506001600160a01b038116155b156102da5760405163c1ab6dc160e01b815260040160405180910390fd5b600080546001600160a01b038085166001600160a01b0319928316811784556001805492861692909316821790925560405190927f5ea26af4537227be397d1c75b8e95f1c4229e2e8df49e752218cd10c8d2b364c91a35050565b61033d61057c565b61034760006105ae565b565b60008061035461060a565b546001600160a01b031692915050565b600061036e61062e565b805490915060ff600160401b820416159067ffffffffffffffff166000811580156103965750825b905060008267ffffffffffffffff1660011480156103b35750303b155b9050811580156103c1575080155b156103df5760405163f92ee8a960e01b815260040160405180910390fd5b845467ffffffffffffffff19166001178555831561040957845460ff60401b1916600160401b1785555b61041233610659565b6001600160a01b0388166104395760405163c1ab6dc160e01b815260040160405180910390fd5b6001600160a01b038716158061045657506001600160a01b038616155b156104745760405163c1ab6dc160e01b815260040160405180910390fd5b600280546001600160a01b03199081166001600160a01b038b81169182179093556000805483168b8516908117825560018054909416948b1694851790935560038190556127106004556040517f4c44808c9907fc3ac5bc464c3f7508b3a06ef37bfab56202d43064046f1f5bac9190a4831561052b57845460ff60401b19168555604051600181527fc7f505b2f371ae2175ee4913f4499e1f2633a7b5936321eed1cdaeb6115181d29060200160405180910390a15b5050505050505050565b61053d61057c565b6001600160a01b038116610570576000604051631e4fbdf760e01b815260040161056791906106b1565b60405180910390fd5b610579816105ae565b50565b33610585610349565b6001600160a01b031614610347573360405163118cdaa760e01b815260040161056791906106b1565b60006105b861060a565b80546001600160a01b038481166001600160a01b031983168117845560405193945091169182907f8be0079c531659141344cd1fd0a4f28419497f9722a3daafe3b4186f6b6457e090600090a3505050565b7f9016d09d72d40fdae2fd8ceac6b6234c7706214fd39c1cd1e609a0528c19930090565b6000807ff0c57e16840df040f15088dc2f81fe391c3923bec73e23a9662efc9c229c6a005b92915050565b61066161066a565b6105798161068f565b610672610697565b61034757604051631afcd79f60e31b815260040160405180910390fd5b61053d61066a565b60006106a161062e565b54600160401b900460ff16919050565b6001600160a01b0391909116815260200190565b6000602082840312156106d757600080fd5b5035919050565b600080604083850312156106f157600080fd5b50508035926020909101359150565b80356001600160a01b038116811461071757600080fd5b919050565b6000806040838503121561072f57600080fd5b61073883610700565b915061074660208401610700565b90509250929050565b60008060006060848603121561076457600080fd5b61076d84610700565b925061077b60208501610700565b915061078960408501610700565b90509250925092565b6000602082840312156107a457600080fd5b6107ad82610700565b9392505050565b634e487b7160e01b600052601160045260246000fd5b80820180821115610653576106536107b4565b8082028115828204841417610653576106536107b4565b60008261081157634e487b7160e01b600052601260045260246000fd5b500490565b81810381811115610653576106536107b456fea26469706673582212208b099cd5023c140356f6634367c4186504a7fd763242a107afee79b0288ee1cc64736f6c63430008160033",
  "linkReferences": {},
  "deployedLinkReferences": {}
}