{
  "_format": "hh-sol-artifact-1",
  "contractName": "ProxyAdmin",
  "sourceName": "@openzeppelin/contracts/proxy/transparent/ProxyAdmin.sol",
  "abi": [
    {
      "inputs": [
        {
          "internalType": "address",
          "name": "initialOwner",
          "type": "address"
        }
      ],
      "stateMutability": "nonpayable",
      "type": "constructor"
    },
    {
      "inputs": [
        {
          "internalType": "address",
          "name": "owner",
          "type": "address"
        }
      ],
      "name": "OwnableInvalidOwner",
      "type": "error"
    },
    {
      "inputs": [
        {
          "internalType": "address",
          "name": "account",
          "type": "address"
        }
      ],
      "name": "OwnableUnauthorizedAccount",
      "type": "error"
    },
    {
      "anonymous": false,
      "inputs": [
        {
          "indexed": true,
          "internalType": "address",
          "name": "previousOwner",
          "type": "address"
        },
        {
          "indexed": true,
          "internalType": "address",
          "name": "newOwner",
          "type": "address"
        }
      ],
      "name": "OwnershipTransferred",
      "type": "event"
    },
    {
      "inputs": [],
      "name": "UPGRADE_INTERFACE_VERSION",
      "outputs": [
        {
          "internalType": "string",
          "name": "",
          "type": "string"
        }
      ],
      "stateMutability": "view",
      "type": "function"
    },
    {
      "inputs": [],
      "name": "owner",
      "outputs": [
        {
          "internalType": "address",
          "name": "",
          "type": "address"
        }
      ],
      "stateMutability": "view",
      "type": "function"
    },
    {
      "inputs": [],
      "name": "renounceOwnership",
      "outputs": [],
      "stateMutability": "nonpayable",
      "type": "function"
    },
    {
      "inputs": [
        {
          "internalType": "address",
          "name": "newOwner",
          "type": "address"
        }
      ],
      "name": "transferOwnership",
      "outputs": [],
      "stateMutability": "nonpayable",
      "type": "function"
    },
    {
      "inputs": [
        {
          "internalType": "contract ITransparentUpgradeableProxy",
          "name": "proxy",
          "type": "address"
        },
        {
          "internalType": "address",
          "name": "implementation",
          "type": "address"
        },
        {
          "internalType": "bytes",
          "name": "data",
          "type": "bytes"
        }
      ],
      "name": "upgradeAndCall",
      "outputs": [],
      "stateMutability": "payable",
      "type": "function"
    }
  ],
  "bytecode": "0x608060405234801561001057600080fd5b5060405161053e38038061053e83398101604081905261002f916100be565b806001600160a01b03811661005e57604051631e4fbdf760e01b81526000600482015260240160405180910390fd5b6100678161006e565b50506100ee565b600080546001600160a01b038381166001600160a01b0319831681178455604051919092169283917f8be0079c531659141344cd1fd0a4f28419497f9722a3daafe3b4186f6b6457e09190a35050565b6000602082840312156100d057600080fd5b81516001600160a01b03811681146100e757600080fd5b9392505050565b610441806100fd6000396000f3fe60806040526004361061004a5760003560e01c8063715018a61461004f5780638da5cb5b146100665780639623609d14610095578063ad3cb1cc146100a8578063f2fde38b146100e6575b600080fd5b34801561005b57600080fd5b50610064610106565b005b34801561007257600080fd5b506000546001600160a01b031660405161008c919061024d565b60405180910390f35b6100646100a336600461028c565b61011a565b3480156100b457600080fd5b506100d9604051806040016040528060058152602001640352e302e360dc1b81525081565b60405161008c91906103a8565b3480156100f257600080fd5b506100646101013660046103c2565b610189565b61010e6101d0565b61011860006101fd565b565b6101226101d0565b60405163278f794360e11b81526001600160a01b03841690634f1ef28690349061015290869086906004016103df565b6000604051808303818588803b15801561016b57600080fd5b505af115801561017f573d6000803e3d6000fd5b5050505050505050565b6101916101d0565b6001600160a01b0381166101c4576000604051631e4fbdf760e01b81526004016101bb919061024d565b60405180910390fd5b6101cd816101fd565b50565b6000546001600160a01b03163314610118573360405163118cdaa760e01b81526004016101bb919061024d565b600080546001600160a01b038381166001600160a01b0319831681178455604051919092169283917f8be0079c531659141344cd1fd0a4f28419497f9722a3daafe3b4186f6b6457e09190a35050565b6001600160a01b0391909116815260200190565b6001600160a01b03811681146101cd57600080fd5b634e487b7160e01b600052604160045260246000fd5b6000806000606084860312156102a157600080fd5b83356102ac81610261565b925060208401356102bc81610261565b9150604084013567ffffffffffffffff808211156102d957600080fd5b818601915086601f8301126102ed57600080fd5b8135818111156102ff576102ff610276565b604051601f8201601f19908116603f0116810190838211818310171561032757610327610276565b8160405282815289602084870101111561034057600080fd5b8260208601602083013760006020848301015280955050505050509250925092565b6000815180845260005b818110156103885760208185018101518683018201520161036c565b506000602082860101526020601f19601f83011685010191505092915050565b6020815260006103bb6020830184610362565b9392505050565b6000602082840312156103d457600080fd5b81356103bb81610261565b6001600160a01b038316815260406020820181905260009061040390830184610362565b94935050505056fea2646970667358221220ed65b28aebe78573fccf2b978772e8e5f6de719fbf8a01f7375339b9d91502ba64736f6c63430008160033",
  "linkReferences": {},
  "deployedLinkReferences": {}
}